:10002600003F0006005B004F0066006D007D000784
:10003600007F006F0077007C0039005E0079007158
:100046000000F242F3C1F3D3F5AFF6D0F7D1F812C0
:10005600F91DF9DDFA89FAD7FB68FBE8FC5BFC8E33
:10006600FCEFFD44FD6CFDB4FDF4FE2BFFFF0B0918
:100076000B0E0C0E0C0B0B0708090807080B090BD7
:100086000E0D0C0E0B0B07080906070C0E0E0D0CB9
:100096000D0E0C0D0E0C0C0B0A07080B090B0E0DA2
:1000A6000C0E0B0B08090A0607FF040202080402DD
:1000B60002080402020402020C04020204020404FE
:1000C6000804020204020C040408040202080202E4
:1000D60002020202020210040202040204040804DC
:1000E600020204020CFF0708090707080907090AA4
:1000F6000B090A0B0B0C0B0A09070B0C0B0A090759
:10010600070407070407FF040404040404040404A2
:1001160004080404080202020204040202020204A1
:1001260004040408040408FF070707080909090965
:100136000A0B0C0C0B0A090B0B0809070707070823
:100146000B0909090A0B0C0C0B0A090B0B0809070A
:10015600FF02020202040202020204020202020476
:100166000202020204020202020402020202040263
:10017600020202040202020205FF05090909090832
:1001860007080706050C0C0C0C0C0B020B0B0A09D6
:10019600090C0C0B090807080706050902070706DC
:1001A6000509080706040CFF020202020202020207
:1001B600020208020202020402020202020802020B
:1001C6000202040202020202040202020202040203
:1001D6000202020208FF0B0C0B0908090B090807AB
:1001E600090B0709080B0C0B0908090B0908070876
:1001F60007080907FF0404080404080404040402A9
:1002060002020208040408040408040404040202A6
:04021600020208FFD9
:1005C4004100060041005200410042004E00232039
:1005D40020312E536F6E672042696530005100311F
:1005E400322E4C69616E675A68694C616F48753088
:1005F400004F00432020332E486120426120476F82
:1006040075300050005320342E4C616E20487561C3
:100614002043616F300050006320352E4275204422
:10062400616F2057656E67300050000F204B333ADE
:0C063400446F776E204B343A5550300074
:0907BD007F0112079C7F647E009D
:1007C600EF1FAA0670011E4A600B7DE6EDD394006A
:0507D60040EE1D80F75C
:0107DB0022FB
:1003FE00E490007BF075900FE590640F700302049B
:10040E00A87F0A7E001207C6E590640F70030204EF
:10041E00A875900FAF90EF24F5601224FE601614AD
:10042E00601B2407701DE4900006F08016900006F5
:10043E007401F0800E9000067402F08006900006A3
:10044E007403F07590F0AF90EF2450601324E060C9
:10045E001824F0601D24707020900006E0F08019C2
:10046E00900006E02404F08010900006E02408F0CE
:10047E008007900006E0240CF090007BE0C39432DD
:10048E005012E59064F0600C7F0A7E001207C6E001
:10049E0004F080E5900006E004F0900006E0C394BE
:0604AE000540037405F097
:0104B4002225
:10080F00C2A6D2A5D2A700000000E5805480FFC287
:01081F00A731
:0108200022B5
:10079C00AE0712080FEF70FAC2A6C2A5C2A70000DE
:1007AC00AF068F8000000000D2A700000000C2A797
:0107BC00221A
:07001600EF4480FF02079C8C
:1007DC00AE0712080FEF70FAD2A6C2A5C2A7AF06D9
:0F07EC008F8000000000D2A700000000C2A722EB
:1007FB007F3812079C7F0C12079C7F0612079C7F89
:04080B000102079C43
:03000300020641B1
:10064100C0E0C083C082C0D075D000C002C005C068
:1006510006C0071207BD20B21BC28C900006E0B491
:1006610005057401F08006900006E004F0D28C903C
:100671000022E4F0D007D006D005D002D0D0D0823D
:05068100D083D0E0323F
:030013000206865C
:10068600C0E0C083C082C0D075D000C002C005C023
:1006960006C0071207BD20B31BC28E900006E0B449
:1006A60001057405F08006900006E014F0D28E90E5
:1006B6000022E4F0D007D006D005D002D0D0D082F8
:0506C600D083D0E032FA
:03000B0002070EDB
:10070E00C0E0C083C082C0D075D000C004C005C098
:10071E0007900042E025E02448F582E43400F5839A
:10072E00E493FC740193FDECF58CAF058F8AB295C2
:0F073E00D007D005D004D0D0D082D083D0E03205
:1006CB00E4FF120016E4FD90001FE0FBA3E0FAA389
:1006DB00E0F98D8275830012074DFF6430600612BE
:1006EB0007DC0D80E27F40120016E4FD740F2DF540
:1006FB0082E43400F583E0FF643060061207DC0D02
:02070B0080EA82
:01070D0022C9
:0300230002054192
:10054100C0E0C083C082C0D075D000C003C004C069
:0505510005C006C00713
:10055600E4FDFC3098FDAF99EFFBED25E0FFEC33B1
:10056600FE74752FF58274003EF583E4F0A3EBF07C
:10057600C2980DBD00010CED64034C70D690007559
:10058600E07002A3E07019900079E07002A3E070B9
:100596000F900077E0FFA3E0900073CFF0A3EFF099
:0B05A600900073A3E0900006F0D2AFBD
:1005B100D007D006D005D004D003D0D0D082D083CC
:0305C100D0E03255
:10077A00D2A9D2A8D288D2AAD28AC2AFC28C75987C
:10078A0050758920758780758DF3758BF3D2ACD23D
:02079A008E22AD
:10021A0012077A1207FB90000374FFF0A37400F030
:10022A00A37474F090000074FFF0A37400F0A37438
:10023A00B0F090001F7401F0A37400F0A37423F0CF
:10024A009000067401F0C2A2C2A3C2A4E025E02471
:10025A0026F582E43400F583740193F58020B10217
:10026A00D2AF20B002B2AF1203FE900006E0FF90B8
:10027A000052F0BF02327F0112079C90000374FF04
:10028A00F0A37400F0A374ECF090000074FFF0A3E4
:10029A007401F0A3740DF090001F7401F0A37400B0
:1002AA00F0A37431F002038D900052E0FDB40332E2
:1002BA007F0112079C90000374FFF0A37401F0A35E
:1002CA00742EF090000074FFF0A37401F0A3745729
:1002DA00F090001F7401F0A37400F0A37443F002BD
:1002EA00038DEDB404317F0112079C90000374FF63
:1002FA00F0A37401F0A37480F090000074FFF0A3DF
:10030A007401F0A374AEF090001F7401F0A374009E
:10031A00F0A37453F0806C900052E0FDB405317F75
:10032A000112079C90000374FFF0A37401F0A374F8
:10033A00DCF090000074FFF0A37401F0A374FBF0EA
:10034A0090001F7401F0A37400F0A37463F080336B
:10035A00EDB4012F7F0112079C90000374FFF0A3F4
:10036A007400F0A37474F090000074FFF0A374009A
:10037A00F0A374B0F090001F7401F0A37400F0A30E
:10038A007423F0C2A2C2A3C2A41206CB900006E054
:10039A0025E02426F582E43400F583740193F58080
:1003AA00900003E0FBA3E0FAA3E0F9900022E0F555
:1003BA008275830012074DFF900042F0BFFF07E4E9
:1003CA00900022F0C28CD28C900000E0FBA3E0FAED
:1003DA00A3E0F9900042E0F58275830012074D759B
:1003EA00F03CA4FFAEF01207C6C28C900022E004D3
:0403FA00F0020267A4
:030000000204B542
:0C04B500787FE4F6D8FD7581070204FC96
:10074D00BB010CE58229F582E5833AF583E0225061
:10075D0006E92582F8E622BBFE06E92582F8E222AB
:0D076D00E58229F582E5833AF583E49322C5
:1004C10002021AE493A3F8E493A34003F68001F235
:1004D10008DFF48029E493A3F85407240CC8C3333C
:1004E100C4540F4420C8834004F456800146F6DF0B
:1004F100E4800B01020408102040809005C4E47ED2
:10050100019360BCA3FF543F30E509541FFEE493FF
:10051100A360010ECF54C025E060A840B8E493A3C6
:10052100FAE493A3F8E493A3C8C582C8CAC583CAF1
:10053100F0A3C8C582C8CAC583CADFE9DEE780BEA9
:0106400000B9
:00000001FF
